:100000000040002071FB0000ADFB0000B5FB0000CC
:10001000ADFB0000ADFB0000ADFB000000000000E8
:10002000000000000000000000000000ADFB000028
:10003000ADFB000000000000ADFB0000ADFB0000C8
:1000400049CA0000EDFA0000FBFA000009FB0000BD
:1000500019FB0000ADFB000071C2000025C20000CA
:1000600081C7000065B5000075B5000065E80000B7
:1000700073E80000B1AD0000E1F1000011DD000007
:1000800041DD0000ADFB000069BE0000C9AC00000E
:1000900029DE000049DE000071E4000089E4000070
:1000A00059DD000079DD0000C1DD0000E1DD000068
:1000B00001F5000029F50000ADFB0000ADFB0000DC
:1000C000ADFB0000E1A90000B9AA00001DAF0000CF
:1000D00041E4000059E4000095A80000ADFB0000D9
:1000E00081E8000081C1000029DD00001DC1000081
:1000F00085C40000FDA10000FD9F0000000000007D
:1001000000000000000000000000000000000000EF
:1001100000000000000000000000000000000000DF
:10012000ADFB0000ADFB0000ADFB0000ADFB00002F
:10013000ADFB0000ADFB0000ADFB0000ADFB00001F
:10018000FFFFFFFFFFFFFFFFFFFFFFFFFFFFFFFF7F
:1001900003329CA77F000000FFFFFFFFFFFFFFFF70
:1001A00010B5054C237833B9044B13B10448AFF3B1
:1001B00000800123237010BD001004200000000007
:1001C00070F0010008B5034B1BB103490348AFF3BE
:1001D000008008BD000000000410042070F0010041
:1001E000A3F5803A704700BF174B002B08BF134B95
:1001F0009D46FFF7F5FF00218B460F461348144A32
:10020000121A11F0F1FC0E4B002B00D098470D4B49
:10021000002B00D098470020002104000D000D485D
:10022000002802D00C4815F08DFC11F07FF9200059
:10023000290008F0A9FF10F063FE00BF00000800CD
:10024000000000000000000000400020001004201A
:1002500070210420455B0100396C010080B594B029
:1002600000AF786039607B68002B02D03B68002BC0
:1002700002D16FF0150305E12821012009F048F9AA
:10028000B864BB6C002B02D16FF00B03FAE0BB6CBF
:100290003A681146184604F035FDF864FB6C002BF3
:1002A000C0F2EB80BB6C1A1D3B6820331946104628
:1002B00004F09AFAF864FB6C002BC0F2D780BB6C98
:1002C0005B680121184604F000FBF864FB6C002B0E
:1002D000C0F2C380BB6C03F108023B68343319469B
:1002E000104604F081FAF864FB6C002BC0F2B78072
:1002F000BB6C9B68184604F0C6FAF864FB6C002BD4
:10030000C0F29080B86C02F0DBFCF864FB6C002B50
:10031000C0F28A80B86C00F06BFFF864FB6C002BB5
:10032000C0F2848001233B640023BB630123FB6391
:1003300000237B63002387F84530012387F844308E
:10034000002387F84730012387F8463007F134034C
:100350001946B86C02F0DDF9F864FB6C002B67DB22
:10036000002387F8203000237B620223BB62022334
:10037000FB6202233B6307F120031946B86C01F0CE
:1003800037FEF864FB6C002B54DB012387F8203028
:1003900007F120031946B86C01F02AFEF864FB6CE3
:1003A000002B49DB01234FF0FF320121B86C02F032
:1003B0008AFBF864FB6C002B40DB01234FF00072DA
:1003C0000021B86C02F07FFBF864FB6C002B37DB7C
:1003D0004FF0FF31B86C02F0ADFBF864FB6C002B02
:1003E00030DB0023FB6000237B6103233B6103239D
:1003F000FB610323BB6107F10C031946B86C02F0E3
:10040000CCFBF864FB6C002B1ED12049B86C02F0C9
:1004100009FCF864FB6C002B18DB7B68BA6C1A6073
:1004200000232FE000BF12E000BF10E000BF0EE08D
:1004300000BF0CE000BF0AE000BF08E000BF06E01C
:1004400000BF04E000BF02E000BF00E000BFBB6CE3
:100450009B68184604F0F5F902E000BF00E000BF19
:10046000BB6C5B68184604F0ECF900E000BFBB6CA5
:100470001B68184604F0E6FC00E000BFB86C09F009
:1004800055F8FB6C18465037BD4680BDE5470A005D
:1004900080B485B000AF786039607B681A6A7B6889
:1004A0009B691344FB607B681B69FA689A420DD212
:1004B0007B685A697B689B699B0013443A681A60A1
:1004C0007B689B695A1C7B689A6103E07B686FF0CC
:1004D0000B025A62002318461437BD4680BC704791
:1004E00080B487B000AFF860B9607A60BB689B08E1
:1004F000DBB2BB6000237B6111E0FB68DA697B69DA
:100500009B0013441B781A46BB68934204D17B6856
:100510007A691A60002309E07B6901337B61FB681B
:100520001B6A7A699A42E8D36FF0150318461C37A4
:10053000BD4680BC704780B584B000AFF860B9603C
:100540007A60FB681B68BA6891B27A68184600F056
:100550005DFC034618461037BD4680BD80B487B0A9
:1005600000AFF8600B467A607B81FB681A6AFB6813
:100570009B6913447B61FB681B697A699A421CD2B0
:10058000FB68DB691A1FFB68DA617B899B089AB2FA
:10059000FB68DB69D2B21A707B6823F07F43FA688C
:1005A000D269C3F31301136861F31F231360FB685F
:1005B0001B6A5A1CFB681A6203E0FB686FF00B02AF
:1005C0005A62002318461C37BD4680BC704780B570
:1005D00086B000AFF8600B467A607B817B8907F1BB
:1005E00010021946F868FFF77BFF0346002B18D06E
:1005F0007B897A681946F868FFF79DFF78617B6907
:10060000002B01DA7B6918E07B681A687B89194640
:10061000F868FFF7A3FF78617B69002B0CDA7B6930
:100620000BE0FB68DA693B699B0013441B68C3F36A
:1006300017231A467B681A60002318461837BD46F0
:1006400080BD80B586B000AFF8600B467A607B81D4
:100650007B89B3F5085F06D3FB686FF021025A620D
:100660006FF0210345E07B8907F110021946F86815
:10067000FFF736FF0346002B1DD1FB68DA693B69A3
:100680009B001A447B6823F07F41136861F31F23AA
:1006900013607B899B089BB21B0603F0FE427B68BC
:1006A00023F07F43134343F000431946F868FFF7F4
:1006B000EFFE78611CE07B897A681946F868FFF7DD
:1006C0004DFF78617B69002B01DA7B6911E07B8942
:1006D0009B089BB21B0603F0FE427B6823F07F431E
:1006E000134343F000431946F868FFF7D1FE7861E1
:1006F0007B6918461837BD4680BD80B485B000AF11
:10070000F860B9607A607B68012B02D86FF015033E
:100710001BE0FB687A681A61FB68BA685A617B68FB
:1007200003F18043013B9B00BA681A44FB68DA611D
:10073000FB6800229A61FB6800221A62FB680022B3
:100740005A62FB6800221A73002318461437BD460C
:1007500080BC704780B487B000AFF860B9607A6041
:10076000BB68002B03D0FB685A69BB681A607B68C2
:10077000002B03D0FB689A697B681A60FB685B6A90
:100780007B617B6918461C37BD4680BC704780B4CE
:1007900083B000AF78600B46FB707B68FA781A7301
:1007A000FB78002B05D07B6800229A617B680022D1
:1007B0005A62002318460C37BD4680BC70470000C3
:1007C000B0B598B000AFF860B9607A600023BB653F
:1007D0008A4B07F124041D460FCD0FC40FCD0FC463
:1007E0000FCD0FC42B682360854B07F114040FCB8A
:1007F00084E80F007B6800221A60BB68002B02D1DE
:100800006FF01503F6E07B68002B02D16FF0150343
:10081000F0E0BB685B680B2B02D96FF01503E9E0D1
:10082000BB681B68022B02D96FF01503E2E0BB68BE
:100830009B68032B02D96FF01503DBE0BB681B69D3
:10084000032B00F2D08001A252F823F05D080000D3
:100850008B080000DD0800001F090000BB685A6912
:1008600013469B0013449B0018460FF03BFF0246C3
:10087000BB689B69194610460FF08CFF034618466B
:1008800010F04EF90346BB65B0E0BB685A691346E9
:100890009B0013449B0003F12802BB681B689B006C
:1008A00060333B4453F84C3C02FB03F314331846CB
:1008B0000FF018FF0246BB689B69194610460FF0FF
:1008C00069FF03464FF07C5118460FF05BFE03466C
:1008D000184610F025F90346BB6587E0BB685B69E5
:1008E0005A1CBB685B689B0060333B4453F83C3C3C
:1008F00002FB03F30133BB65BB6801221A61BA6DC9
:10090000BB685A6107F158031A46B968F868FFF7DF
:1009100057FFF865FB6D002B67DAFB6D6AE0BB687B
:10092000DB68032B52D801A252F823F07D090000A6
:100930005D0900003D0900009D090000BB68002220
:100940001A6107F158031A46B968F868FFF738FFCB
:10095000F865FB6D002B3BDAFB6D4BE0BB680122B9
:100960001A6107F158031A46B968F868FFF728FFBB
:10097000F865FB6D002B2DDAFB6D3BE0BB680222B6
:100980001A6107F158031A46B968F868FFF718FFAB
:10099000F865FB6D002B1FDAFB6D2BE0BB680122B5
:1009A0001A61BB685A69BB689B6801339A40BB688F
:1009B0005A6107F158031A46B968F868FFF700FF53
:1009C000F865FB6D002B09DAFB6D13E000BF06E054
:1009D00000BF04E000BF02E000BF00E000BFBB6D4D
:1009E0001933BB6502E000BF00E000BFBA6D7B6851
:1009F0001A60002318466037BD46B0BD60E60100AE
:100A000094E601002DE9B04F86B000AFF860B96000
:100A10007A60BB681B7C002B00F0BF80BB685A6803
:100A2000BB689B681946104610F052F80346002B2D
:100A300059D0BB685B695A1CBB685A61BB685A696C
:100A4000BB68DB689A4202D1BB6800225A61BB686E
:100A50005B6818460FF0D6FA04460D46BB685B6922
:100A600018460FF0ADFA80468946BB689A68BB68A5
:100A70005B68194610460FF041FF034618460FF019
:100A8000C1FA02460B46104619461CF005F902460B
:100A90000B46404649460FF00DFB02460B4690467A
:100AA0009946BB68DB68013B18460FF089FA02469D
:100AB0000B46404649460FF027FC02460B464FF0D6
:100AC00000008D491CF01CF902460B4620462946C1
:100AD0000FF0F0FA02460B46104619460FF0FCFCE8
:100AE00003467B61FFE0BB685B695A1EBB685A61C5
:100AF000BB685A69BB68DB689A4204D3BB68DB6891
:100B00005A1EBB685A61BB689B6818460FF07AFA98
:100B100004460D46BB685B6918460FF051FA8046E3
:100B20008946BB685A68BB689B68194610460FF037
:100B3000E5FE034618460FF065FA02460B461046DE
:100B400019461CF0A9F882468B46BB68DB68013B5E
:100B500018460FF035FA02460B46504659460FF03C
:100B6000D3FB02460B46404649460FF0A3FA024625
:100B70000B464FF0000060491CF0C2F802460B46DD
:100B8000204629460FF096FA02460B4610461946B3
:100B90000FF0A2FC03467B61A5E0BB685A68BB6806
:100BA0009B68194610460FF093FF0346002B4CD06C
:100BB000BB685B695A1CBB685A61BB685A69BB68F1
:100BC000DB689A4202D1BB6800225A61BB685B684D
:100BD00018460FF017FA04460D46BB685B691846C5
:100BE0000FF0EEF980468946BB689A68BB685B687F
:100BF000194610460FF0C4FC034618460FF002FADF
:100C000002460B46404649460FF054FA02460B4650
:100C100090469946BB68DB68013B18460FF0D0F957
:100C200002460B46404649460FF06EFB02460B4615
:100C3000204629460FF088F802460B461046194612
:100C40000FF04AFC03467B614DE0BB685B695A1EAE
:100C5000BB685A61BB685A69BB68DB689A4204D3B7
:100C6000BB68DB685A1EBB685A61BB689B68184644
:100C70000FF0C8F904460D46BB685B6918460FF0D3
:100C80009FF980468946BB685A68BB689B681946CD
:100C900010460FF075FC034618460FF0B3F90246F4
:100CA0000B46404649460FF005FA02460B46904671
:100CB0009946BB68DB68013B18460FF081F9024694
:100CC0000B46404649460FF01FFB02460B462046A6
:100CD00029460FF039F802460B46104619460FF028
:100CE000FBFB03467B617B687A691A6000BF18379B
:100CF000BD46BDE8B08F00BF0000244080B582B083
:100D000000AF786039603A680021786810F06CFFB5
:100D100000BF0837BD4680BD80B588B000AFF86021
:100D20000B467A607B810023FB61FB695A1CFA61E8
:100D300020333B44202203F8102C7B891B0A99B2F4
:100D4000FB695A1CFA61CAB220333B4403F8102CE9
:100D5000FB695A1CFA617A89D2B220333B4403F80A
:100D6000102CFB699AB207F110031946F86804F0D9
:100D7000C3F8B861BB69002B01D0BB6942E0002316
:100D8000FB61FB695A1CFA6120333B442D2203F8B6
:100D9000102C7B89B3F5805F18D37B8943F2140252
:100DA000934213D87B68190EFB695A1CFA61CAB2C8
:100DB00020333B4403F8102C7B68190CFB695A1C48
:100DC000FA61CAB220333B4403F8102C7B68190A3D
:100DD000FB695A1CFA61CAB220333B4403F8102C59
:100DE000FB695A1CFA617A68D2B220333B4403F89B
:100DF000102CFB699AB207F110031946F86804F049
:100E00007BF8034618462037BD4680BD80B588B0C4
:100E100000AFF8600B467A607B810023FB61FB69C1
:100E20005A1CFA6120333B44202203F8102C7B89A2
:100E30001B0A99B2FB695A1CFA61CAB220333B44BF
:100E400003F8102CFB695A1CFA617A89D2B220335C
:100E50003B4403F8102CFB699AB207F110031946C2
:100E6000F86804F049F8B861BB69002B01D0BB6990
:100E70008BE00023FB61FB695A1CFA6120333B4481
:100E80006D2203F8102CFB695A1CFA6120333B4495
:100E9000002203F8102C7B89B3F5805F14D37B8983
:100EA00043F2140293420FD8FB695A1CFA612033B3
:100EB0003B44002203F8102CFB695A1CFA612033D2
:100EC0003B44002203F8102CFB695A1CFA612033C2
:100ED0003B44002203F8102CFB695A1CFA612033B2
:100EE0003B44002203F8102CFB699AB207F110036F
:100EF0001946F86804F000F8B861BB69002B01D00E
:100F0000BB6942E07B6800221A600223FB617B8997
:100F1000B3F5805F1ED37B8943F21402934219D844
:100F2000FB695A1CFA6120333B4413F8103C1A0643
:100F30007B681B681A437B681A60FB695A1CFA615C
:100F400020333B4413F8103C1A047B681B681A4397
:100F50007B681A60FB695A1CFA6120333B4413F822
:100F6000103C1A027B681B681A437B681A60FB6995
:100F70005A1CFA6120333B4413F8103C1A467B6834
:100F80001B681A437B681A60002318462037BD4649
:100F900080BD000080B58AB000AFF860B9607A60AB
:100FA0007B689B000733FB6100237B6200233B626D
:100FB0003E4B1B68002B0CD1F86908F09DFA0346E4
:100FC0003B4A13603A4B1B68002B02D16FF00B03B6
:100FD00068E0364B1B68FA699A420FD9344B1B689C
:100FE000F969184610F0D0FEB861BB69002B02D138
:100FF0006FF00B0356E02E4ABB6913602C4B1B6845
:10100000FA690021184610F0EFFD294B1B685F229A
:101010001A70274B1A68FB69083B134408224421C5
:10102000184610F0E1FD224B1B68FA6992B219468E
:10103000F86803F061FF78617B69002B01D07B6960
:1010400030E007237B6228E0194B1A687B6A13445F
:101050001B781A06164B19687B6A01330B441B7800
:101060001B041A43124B19687B6A02330B441B782A
:101070001B0213430E4A11687A6A03320A4412783B
:1010800043EA02013B6A5A1C3A629B00BA68134465
:101090000A461A607B6A04337B627A6AFB699A4269
:1010A000D2D3002318462837BD4680BD1C1004202B
:1010B0002010042080B588B000AFF860B9607A6075
:1010C000FB68002B02D16FF0150340E07B68032B17
:1010D00019D80023FB7611E0FB681868FB7E9B00A3
:1010E000BA6813441A4642F26C01FFF78FFEF861AA
:1010F000FB69002B29D1FB7E0133FB76FB7E7A68EE
:101100009A42E9D822E0144A07F1140392E8030056
:1011100018600433198002330A0C1A70FB681B68CC
:1011200007F114010722184603F0E6FEF861FB6997
:10113000002B01D0FB690AE0FB681B687A68B9687C
:101140001846FFF727FFF86100E000BFFB6918466B
:101150002037BD4680BD00BFA4E6010080B584B045
:1011600000AFF8600B467A607B81FB68002B02D1F0
:101170006FF0150313E0FB681B7B002B07D07B8906
:101180007A681946F868FFF75CFA034607E0FB68DF
:101190001B6879897A681846FFF7BEFD0346184632
:1011A0001037BD4680BD80B584B000AFF8600B46F7
:1011B0007A607B81FB68002B02D16FF0150313E08E
:1011C000FB681B7B002B07D07B897A681946F8687F
:1011D000FFF7FDF9034607E0FB681B6879897A6829
:1011E0001846FFF713FE034618461037BD4680BD6C
:1011F00080B584B000AF786040F2C92240F6081193
:101200007868FFF7ABFFF860FB68002B01D0FB6844
:101210005FE0102242F2F0117868FFF79FFFF8605C
:10122000FB68002B01D0FB6853E040F2C9224FF469
:1012300082617868FFF792FFF860FB68002B01D0AD
:10124000FB6846E04FF4827242F28C317868FFF717
:1012500085FFF860FB68002B01D0FB6839E00922AC
:1012600040F628217868FFF779FFF860FB68002BCB
:1012700001D0FB682DE044F6590240F6042178685D
:10128000FFF76CFFF860FB68002B01D0FB6820E0E3
:101290004FF27B2240F604217868FFF75FFFF86089
:1012A000FB68002B01D0FB6813E048F209024FF401
:1012B00020617868FFF752FFF860FB68002B01D0CF
:1012C000FB6806E0002242F2F0217868FFF746FF53
:1012D000034618461037BD4680BD80B586B000AFC6
:1012E000F860B9601346FB7107F110031A464FF41A
:1012F0000051F868FFF757FF78617B69002B01D038
:101300007B6948E0FB79002B1ED0BB6803F020030B
:10131000002B07D03B6923F020033B61BB6823F01F
:101320002003BB60BB6803F40023002B07D03B699C
:1013300023F400233B61BB6823F40023BB603A69BC
:10134000BB6813433B611EE0BB6803F02003002B26
:1013500007D03B6943F020033B61BB6823F02003C7
:10136000BB60BB6803F40023002B07D03B6943F448
:1013700000233B61BB6823F40023BB60BB68DA43F6
:101380003B6913403B613B691A464FF40051F868D2
:10139000FFF7E4FE034618461837BD4680BD80B50A
:1013A00086B000AFF860B9607A60BB687B617B682B
:1013B0009B007A6913437B617A6942F2F021F868F5
:1013C000FFF7CCFE034618461837BD4680BD80B5F2
:1013D00084B000AF7860396007F108031A464FF413
:1013E00000517868FFF7DFFEF860FB68002B01DA38
:1013F000FB689EE0BB6823F02003BB603B681B7862
:1014000083F00103DBB2002B03D0BB6843F0200361
:10141000BB60BB681A464FF400517868FFF79EFE28
:10142000F860FB68002B01DAFB6882E007F1080333
:101430001A464FF406517868FFF7B5FEF860FB686E
:10144000002B01DAFB6874E03B685B78002B03D06B
:10145000BB6843F00103BB603B689B78002B03D063
:10146000BB6843F01003BB603B68DB78002B03D004
:10147000BB6843F00403BB603B681B79002B03D0BF
:10148000BB6843F02003BB603B685B7A002B03D052
:10149000BB6843F48073BB603B689B7A002B03D02E
:1014A000BB6843F00203BB603B68DB7A002B03D0D0
:1014B000BB6843F00803BB603B681B7B002B03D079
:1014C000BB6843F04003BB60BB681A464FF406514B
:1014D0007868FFF743FEF860FB68002B01DAFB68D1
:1014E00027E00023BB603B689B7983F00103DBB2FC
:1014F000002B03D0BB6843F00203BB603B685B7901
:1015000083F00103DBB2002B03D0BB6843F001037F
:10151000BB603B68DB79002B03D0BB6843F004035E
:10152000BB60BB681A4642F250017868FFF716FEAE
:10153000034618461037BD4680BD80B584B000AF65
:10154000786039603B6810331946786800F071F8AC
:10155000F860FB68002B01DAFB681DE03B68503344
:101560001946786800F090F8F860FB68002B01DA03
:10157000FB6811E03B681946786800F011F8F860E4
:10158000FB68002B01DAFB6806E03B681C33194658
:10159000786800F00DF9034618461037BD4680BD47
:1015A00080B584B000AF786039603B681B681A462C
:1015B00042F250117868FFF7D1FDF860FB68002B0C
:1015C00001DAFB6831E03B685B681A4642F2581169
:1015D0007868FFF7C3FDF860FB68002B01DAFB6851
:1015E00023E03B689B681A4642F254117868FFF783
:1015F000B5FDF860FB68002B01DAFB6815E03B687D
:10160000DB681A4642F25C117868FFF7A7FDF860C4
:10161000FB68002B01DAFB6807E04FF4803242F2EE
:101620000C017868FFF79AFD034618461037BD464F
:1016300080BD80B584B000AF786039600023FB6066
:101640003B681B68012B03D1FB6843F48053FB60AC
:101650003B685B68012B03D1FB6843F00103FB602F
:101660003B689B685B0003F4FF73FA681343FB60FD
:10167000FA6842F210017868FFF770FD03461846D9
:101680001037BD4680BD000090B589B000AF7860CE
:1016900039603B68002B02D16FF0150381E03B6895
:1016A0001B69022B02D86FF015037AE03B681B69B7
:1016B0000B2B02D96FF0150373E03B685B69052BB8
:1016C00002D96FF015036CE00023FB613B681B68D7
:1016D000FA691343FB61FA6942F2FC017868FFF78B
:1016E0003DFDB861BB69002B01DABB6959E03B687D
:1016F0009B685B01FB613B685B68FA691343FB61B4
:101700003B681B7B002B03D0FB6943F01003FB619C
:10171000FA6942F2F0017868FFF720FDB861BB6911
:10172000002B01DABB693CE00023FB613B681B69CD
:101730000A2B02D9F823FB6127E03B681B69022BC7
:1017400005D93B681B690833DB00FB611DE0174BC3
:1017500007F108040FCB07C4238002341B0C23704D
:101760003B685B69042B0ED83B681A693B68596972
:1017700013469B00134420333B440B44183B1B7817
:10178000DB00FB6101E0F823FB613B685B69FA6900
:101790001343FB61FA6942F2F8017868FFF7DEFC57
:1017A000034618462437BD4690BD00BFACE6010095
:1017B00080B584B000AF786039603B681B68022B4D
:1017C00037D13B681B6A1A4642F230017868FFF74E
:1017D000C5FCB860BB68002B01DABB68AEE03B68B3
:1017E0005B6A1A4642F23C017868FFF7B7FCB860C2
:1017F000BB68002B01DABB68A0E03B689B6A1A4615
:1018000042F238017868FFF7A9FCB860BB68002B8A
:1018100001DABB6892E03B68DB6A1A4642F23401A7
:101820007868FFF79BFCB860BB68002B67DABB6881
:1018300084E03B681B68032B53D13B689B681A46C6
:1018400042F218017868FFF789FCB860BB68002B8A
:1018500001DABB6872E03B68DB681A4642F21C01A1
:101860007868FFF77BFCB860BB68002B01DABB68C7
:1018700064E03B681B691A4642F220017868FFF772
:101880006DFCB860BB68002B01DABB6856E03B68B2
:101890005B691A4642F228017868FFF75FFCB8607E
:1018A000BB68002B01DABB6848E03B689B691A46BD
:1018B00042F224017868FFF751FCB860BB68002B46
:1018C00001DABB683AE03B68DB691A4642F22C0158
:1018D0007868FFF743FCB860BB68002B0FDABB6881
:1018E0002CE03B681B6B1A4642F248017868FFF710
:1018F00035FCB860BB68002B01DABB681EE0002332
:10190000FB603B681B79002B03D0FB6843F020038E
:10191000FB603B685B79002B03D0FB6843F010034E
:10192000FB603B681B685B00FA681343FB60FA6866
:1019300042F214017868FFF711FC0346184610378D
:10194000BD4680BD80B586B000AFF860B9607A60F2
:101950007968B86800F00CF878617A6942F2300171
:10196000F868FFF7FBFB034618461837BD4680BDF5
:1019700080B584B000AF786039604FF000013868FE
:101980000FF09CF80346002B01D000231DE04FF020
:101990009D4178680EF0FEFE0346396818460EF049
:1019A000ADFF03464FF07C5118460EF0EBFD0346A9
:1019B00018460FF0B5F80346FB60FB68B3F1807F73
:1019C00002D36FF07F43FB60FB6818461037BD46BB
:1019D00080BD80B584B000AF786039603B6819463F
:1019E000786800F011F8F860FB68002B01DAFB68FA
:1019F00006E03B681C331946786800F081F803461E
:101A000018461037BD4680BD80B584B000AF786001
:101A100039600023FB603B681B689B01FB603B68EF
:101A20005B681B01FA681343FB603B689B68DB0043
:101A3000FA681343FB603B681B699B00FA68134319
:101A4000FB603B681B7D83F00103DBB2002B03D0FE
:101A5000FB6843F00103FB603B685B7D83F001039F
:101A6000DBB2002B03D0FB6843F00203FB60FA6893
:101A700042F228117868FFF771FBB860BB68002B51
:101A800001DABB6819E03B68D98A3B681B8BDBB283
:101A90001A46786800F015F8B860BB68002B01D0D2
:101AA000BB680AE03B68DB6843F020031A4642F259
:101AB00024117868FFF752FB034618461037BD46DD
:101AC00080BD80B582B000AF78600B467B80134646
:101AD0007B707B7803F03F037B707B88C3F30B0341
:101AE0007B807B781A037B8813431A4642F22011CD
:101AF0007868FFF733FB034618460837BD4680BDBC
:101B000080B584B000AF786039600023FB603B682B
:101B10001B7D83F00103DBB2002B03D0FB6843F095
:101B20000203FB603B685B7D83F00103DBB2002BAB
:101B300003D0FB6843F00103FB603B68DB68042BC8
:101B400004D1FB6843F00403FB6005E03B68DB68FD
:101B5000DB00FA681343FB603B689B685B01FA6833
:101B60001343FB603B685B689B02FA681343FB60AE
:101B70003B681B685B03FA681343FB60FA6842F238
:101B8000EC017868FFF7EAFAB860BB68002B01DA6D
:101B9000BB6808E03B681B691A4642F2E4017868BA
:101BA000FFF7DCFA034618461037BD4680BD80B506
:101BB00084B000AF786039603B681946786800F0FF
:101BC0008FF8F860FB68002B01DAFB6827E03B68C0
:101BD0000C331946786800F0A4F8FB68002B01DA92
:101BE000FB681CE03B6824331946786800F049F92B
:101BF000FB68002B01DAFB6811E03B682C331946C7
:101C0000786800F0A0F9FB68002B01DAFB6806E0B9
:101C10003B6838331946786800F06FF90346184678
:101C20001037BD4680BD000080B586B000AFF860BB
:101C3000B9607A60BB68062B48D801A252F823F03D
:101C40005D1C00006D1C00007D1C00008D1C000050
:101C50009D1C0000AD1C0000BD1C00007A6842F213
:101C60007401F868FFF79FFA786133E07A684FF4FF
:101C70000251F868FFF797FA78612BE07A6842F230
:101C80008401F868FFF78FFA786123E07A6842F2FE
:101C90007801F868FFF787FA78611BE07A6842F20A
:101CA0007C01F868FFF77FFA786113E07A6842F206
:101CB000C811F868FFF777FA78610BE07A684FF49B
:101CC0000751F868FFF76FFA786103E06FF01503CA
:101CD0007B6100BF7B6918461837BD4680BD00BFD9
:101CE00080B584B000AF786039600023FB603B684A
:101CF0001B68FB603B685B681B02FA681343FB6070
:101D00003B689B681B04FA681343FB60FA6842F265
:101D1000A8117868FFF722FA034618461037BD4627
:101D200080BD80B584B000AF7860396007F10803EA
:101D30001A4642F244017868FFF735FAF860FB680A
:101D4000002B01DAFB6869E0BB6803F08003BB602D
:101D50003B68DA68BB681343BB603B681B7C002BA5
:101D600003D0BB6843F01003BB603B685B7C002B77
:101D700003D0BB6843F04003BB603B685B681A025A
:101D8000BB681343BB603B681B681A03BB68134303
:101D9000BB603B689B689A03BB681343BB603B68AE
:101DA000DB7C83F00103DBB2002B03D0BB6843F480
:101DB0008033BB603B689B7D83F00103DBB2002B6B
:101DC00003D0BB6843F40033BB603B685B7D83F0AA
:101DD0000103DBB2002B03D0BB6843F48023BB605C
:101DE000BB681A4642F244017868FFF7B7F9F86019
:101DF000FB68002B01DAFB6810E03B681B7D002BC1
:101E00000BD001224FF480317868FFF766FAF86052
:101E1000FB68002B01DAFB6800E00023184610374E
:101E2000BD4680BD80B586B000AFF860B9607A600D
:101E300007F110031A4642F2A811F868FFF7B3F948
:101E400078617B69002B01DA7B6916E03B6923F43A
:101E5000F95323F01F033B613A69BB6813433B61AD
:101E60007B681A023B6913433B613B691A4642F2A5
:101E7000A811F868FFF772F9034618461837BD46EF
:101E800080BD80B584B000AF786039603B681B8846
:101E90001A4642F2A8017868FFF760F9F860FB681B
:101EA000002B01DAFB6824E03B685B881A4642F2AB
:101EB000AC017868FFF752F9F860FB68002B01DA93
:101EC000FB6816E03B689B881A4642F2B0017868CE
:101ED000FFF744F9F860FB68002B01DAFB6808E0C3
:101EE0003B68DB881A4642F2B4017868FFF736F99E
:101EF000034618461037BD4680BD80B584B000AF9C
:101F0000786039600023FB603B681B7A002B03D0AC
:101F1000FB6843F00103FB603B685B681B01FA68E8
:101F20001343FB603B681B68DB01FA681343FB60EB
:101F3000FA6842F2C4117868FFF710F903461846B0
:101F40001037BD4680BD80B586B000AF786039607F
:101F500000237B6107F10C031A4642F244017868C2
:101F6000FFF721F938613B685B68032B10D1FB68F0
:101F700043F08003FB60FB681A4642F24401786834
:101F8000FFF7ECF838613B69002B18DA3B692BE06E
:101F9000FB6823F08003FB60FB681A4642F24401B1
:101FA0007868FFF7DBF838613B69002B01DA3B69A1
:101FB0001AE03B685B681B057A6913437B613B68E9
:101FC0001B681B017A6913437B613B681B7A002BFA
:101FD00003D07B6943F001037B617A6942F2D0014F
:101FE0007868FFF7BBF8034618461837BD4680BD32
:101FF00080B584B000AF78603960002242F20801F9
:102000007868FFF7ABF8F860FB68002B01DAFB6833
:1020100051E007F108031A4642F2D8117868FFF739
:10202000C2F8F860FB68002B01DAFB6843E0BB688C
:1020300003F03F03BB603B685B685A02BB68134315
:10204000BB603B689B689A01BB681343BB60BB687D
:102050001A4642F2D8117868FFF780F8F860FB68FA
:10206000002B01DAFB6826E03B681B691B041A465B
:1020700042F2E0117868FFF771F8F860FB68002B16
:1020800001DAFB6817E00023BB603B681B78002B7C
:1020900003D0BB6843F40063BB603B68DB685A0352
:1020A000BB681343BB60BB681A4642F208017868FC
:1020B000FFF754F8034618461037BD4680BD80B57B
:1020C00086B000AFF860B9601346FB7100237B61F6
:1020D000FB79002B03D07B6943F400637B61BB6811
:1020E0005B037A6913437B617A6942F20801F868FD
:1020F000FFF734F8034618461837BD4680BD80B553
:1021000084B000AF7860396007F108031A464FF4D5
:1021100008517868FFF747F8F860FB68002B01DA90
:10212000FB6804E0BB681A0C3B681A600023184681
:102130001037BD4680BD80B586B000AF786039608D
:1021400007F10C031A4642F208017868FFF72BF8F2
:1021500078617B69002B01DA7B696AE0002242F238
:1021600008017868FEF7FAFF78617B69002B01DAD5
:102170007B695EE007F110031A4642F2D8117868D5
:10218000FFF711F878617B69002B01DA7B6950E079
:102190003B6923F03F033B613B6943F008033B612C
:1021A0003B681A683B6913433B613B691A4642F23C
:1021B000D8117868FEF7D2FF78617B69002B01DACD
:1021C0007B6936E03B68DB79002B0DD0002242F2C0
:1021D00004017868FEF7C2FF7861002242F26401D0
:1021E0007868FEF7BBFF786100233B613B681B7991
:1021F000002B03D03B6943F001033B613B689B68C4
:102200001A023B6913433B613B691A4642F20401DF
:102210007868FEF7A3FF78617B69002B01DA7B69A0
:1022200007E0FB681A4642F208017868FEF796FF5D
:10223000034618461837BD4680BD80B582B000AF52
:10224000786039603B68032B02D96FF015030AE010
:1022500001223B6802FA03F31A464FF4866178685C
:10226000FEF77CFF034618460837BD4680BD80B5A3
:1022700086B000AFF860B9607A603B601EE0BB6872
:102280005A1CBA601A4642F2D411F868FEF766FF8B
:1022900078617B69002B01DA7B6915E07B681A1D88
:1022A0007A601B681A4642F27001F868FEF756FF22
:1022B00078617B69002B01DA7B6905E03B685A1E77
:1022C0003A60002BDBD1002318461837BD4680BD8D
:1022D00080B584B000AF786039603B681B68032B21
:1022E00042D801A252F823F0F92200001523000081
:1022F000312300004D2300003B689B681A043B68B3
:102300005B6813431A4642F2CC117868FEF726FF49
:10231000F8602DE03B689B681A043B685B681343D8
:102320001A4642F2E8117868FEF718FFF8601FE0DD
:102330003B689B681A043B685B6813431A4642F289
:10234000D0117868FEF70AFFF86011E03B689B68DF
:102350001A043B685B6813431A4642F2E41178683A
:10236000FEF7FCFEF86003E06FF01503FB6000BFB2
:10237000FB68002B01DAFB6813E03B681B7B002B3A
:102380000ED03B6859683B681A693B689B6878685F
:10239000FFF76DFFF860FB68002B01DAFB6800E0D7
:1023A000002318461037BD4680BD00BF80B582B0FF
:1023B00000AF786039603A6842F254017868FEF7FD
:1023C000CDFE034618460837BD4680BD80B584B0B3
:1023D00000AF786039603B685B6B9BB21A4640F691
:1023E00008017868FEF7BAFEB860BB68002B01DA16
:1023F000BB685FE13B685B6B1B0C03F00F031A4685
:1024000040F60C017868FEF7A9FEB860BB68002BA7
:1024100001DABB684EE13B685B6A9BB21A464FF437
:1024200001617868FEF79AFEB860BB68002B01DA9C
:10243000BB683FE13B685B6A1B0C03F00F031A4665
:1024400040F614017868FEF789FEB860BB68002B7F
:1024500001DABB682EE13B689B6B9BB21A4640F6E3
:1024600018017868FEF77AFEB860BB68002B01DAC5
:10247000BB681FE13B689B6B1B0C03F00F031A4604
:1024800040F61C017868FEF769FEB860BB68002B57
:1024900001DABB680EE13B689B6A9BB21A464FF4B7
:1024A00002617868FEF75AFEB860BB68002B01DA5B
:1024B000BB68FFE03B689B6A1B0C03F00F031A46E6
:1024C00040F624017868FEF749FEB860BB68002B2F
:1024D00001DABB68EEE03B68DB6B9BB21A4640F664
:1024E00028017868FEF73AFEB860BB68002B01DA75
:1024F000BB68DFE03B68DB6B1B0C03F00F031A4685
:1025000040F62C017868FEF729FEB860BB68002B06
:1025100001DABB68CEE03B68DB6A9BB21A464FF437
:1025200003617868FEF71AFEB860BB68002B01DA19
:10253000BB68BFE03B68DB6A1B0C03F00F031A4665
:1025400040F634017868FEF709FEB860BB68002BDE
:1025500001DABB68AEE03B681B6C9BB21A4640F6E2
:1025600038017868FEF7FAFDB860BB68002B01DA25
:10257000BB689FE03B681B6C1B0C03F00F031A4603
:1025800040F63C017868FEF7E9FDB860BB68002BB7
:1025900001DABB688EE03B681B6B9BB21A464FF4B6
:1025A00004617868FEF7DAFDB860BB68002B01DAD9
:1025B000BB687FE03B681B6B1B0C03F00F031A46E4
:1025C00040F644017868FEF7C9FDB860BB68002B8F
:1025D00001DABB686EE0012240F61C217868FEF744
:1025E000BDFDB860BB68002B01DABB6862E0002368
:1025F000FB603B685B6803F00303FA681343FB600E
:102600003B689B689B0003F00C03FA681343FB6074
:102610003B68DB681B0103F03003FA681343FB607F
:102620003B681B699B01DBB2FA681343FB603B68A4
:102630005B691B0203F44073FA681343FB603B6859
:102640009B699B0203F44063FA681343FB603B6899
:10265000DB691B0303F44053FA681343FB603B68D8
:102660001B6A9B039BB2FA681343FB60FA6840F64F
:1026700004017868FEF772FDB860BB68002B01DAD0
:10268000BB6817E00023FB603B6893F84430002BE5
:1026900003D0FB6843F00103FB603B681B685B00F1
:1026A000FA681343FB60FA684FF400617868FEF73C
:1026B00055FD034618461037BD4680BD80B584B031
:1026C00000AF78600B46FB7007F108031A464FF421
:1026D00000617868FEF767FDF860FB68002B01DA9F
:1026E000FB6812E0BB6823F00103BB60FB78002BA2
:1026F00003D0BB6843F00103BB60BB681A464FF4CC
:1027000000617868FEF72AFD034618461037BD467B
:1027100080BD80B586B000AF7860396007F10C03EA
:102720001A464FF421617868FEF73DFD78617B69B8
:10273000002B01DA7B6920E13B68DB7C002B33D086
:10274000FB6843F00403FB604CF6143240F60C21A6
:102750007868FEF703FD78617B69002B01DA7B69FD
:102760000BE1FB681A464FF421617868FEF7F6FC2E
:1027700078617B69002B01DA7B69FEE000233B6115
:102780000DE007F110031A464FF421617868FEF757
:102790000AFD78617B69002B01DA7B69EDE03B691A
:1027A00003F48063002BECD03B681B7C002B33D000
:1027B000FB6843F00203FB604CF6143240F60C2138
:1027C0007868FEF7CBFC78617B69002B01DA7B69C6
:1027D000D3E0FB681A464FF421617868FEF7BEFC2F
:1027E00078617B69002B01DA7B69C6E000233B61DD
:1027F0000DE007F110031A464FF421617868FEF7E7
:10280000D2FC78617B69002B01DA7B69B5E03B691A
:1028100003F40073002BECD03B689B7C002B33D07F
:10282000FB6843F00103FB604CF6143240F60C21C8
:102830007868FEF793FC78617B69002B01DA7B698D
:102840009BE0FB681A464FF421617868FEF786FC2E
:1028500078617B69002B01DA7B698EE000233B61A4
:102860000DE007F110031A464FF421617868FEF776
:102870009AFC78617B69002B01DA7B697DE03B691A
:1028800003F48073002BECD03B685B7C002B05D0FD
:102890000121786800F075F8786104E0002178681B
:1028A00000F06FF878617B69002B01DA7B6964E0E6
:1028B0003B689B6803F03F033B613B689B6803F008
:1028C0003F023B6913433B613B691A464FF4816108
:1028D0007868FEF743FC78617B69002B01DA7B693D
:1028E0004BE03B681B683B613B685B689A003B6957
:1028F00013433B613B691A4640F214417868FEF786
:102900002DFC78617B69002B01DA7B6935E03B683F
:10291000DB7C83F00103DBB2002B03D0FB6823F0E8
:102920000403FB603B681B7C83F00103DBB2002BDC
:1029300003D0FB6823F00203FB603B689B7C83F0C1
:102940000103DBB2002B03D0FB6823F00103FB6023
:102950004CF6143240F60C217868FEF7FFFB7861E4
:102960007B69002B01DA7B6907E0FB681A464FF4AC
:1029700021617868FEF7F2FB034618461837BD461A
:1029800080BD80B588B000AF78600B46FB7007F162
:102990000C031A464FF482617868FEF704FCF86174
:1029A000FB69002B01DAFB6989E0FB685B0A03F035
:1029B0000103BB61FB681B0A03F001037B61FB6839
:1029C000DBB2FB60BB691A027B695B021A43FB68DE
:1029D0001343FB60FB6843F020031A464FF4826107
:1029E0007868FEF7BBFBF861FB69002B01DAFB6935
:1029F00065E007F108031A4642F2BC017868FEF769
:102A0000D2FBF861FB69002B01DAFB6957E0FB7828
:102A1000002B25D0BB6823F004031A4642F2BC0108
:102A20007868FEF79BFBF861FB69002B01DAFB6914
:102A300045E000233B610DE007F110031A464FF417
:102A400021617868FEF7AFFBF861FB69002B01DAC2
:102A5000FB6934E03B6903F40073002BECD024E005
:102A6000BB6843F004031A4642F2BC017868FEF7E3
:102A700075FBF861FB69002B01DAFB691FE000239D
:102A80003B610DE007F110031A464FF421617868AD
:102A9000FEF789FBF861FB69002B01DAFB690EE0A8
:102AA0003B6903F40073002BECD0FB6823F0200398
:102AB0001A464FF482617868FEF750FB03461846C9
:102AC0002037BD4680BD80B588B000AFF860B960E2
:102AD0007A60FB7043F20803FB61BB68012B02D1F3
:102AE00043F20C03FB61FB699BB207F11402194628
:102AF000F868FEF758FBB861BB69002B01DABB69C7
:102B000014E0FB78002B04D07A697B6813437B6167
:102B100004E07B68DA437B6913407B61FB699BB20D
:102B20007A691946F868FEF719FB034618462037FC
:102B3000BD4680BD80B582B000AF786039603A682C
:102B400043F204017868FEF709FB0346184608378C
:102B5000BD4680BD80B586B000AFF860B9607A60D0
:102B6000BB68002B02D143F2100301E043F21403CF
:102B70007B617B699BB207F110021946F868FEF78A
:102B800012FB3A697B681340002B01D0012300E05F
:102B9000002318461837BD4680BD80B584B000AF0D
:102BA000786039603B681B681A4600217868FEF738
:102BB000D5FAF860FB68002B01DAFB682EE03B6871
:102BC0005B681A4604217868FEF7C8FAF860FB686B
:102BD000002B01DAFB6821E03B689B681A460C2158
:102BE0007868FEF7BBFAF860FB68002B01DAFB6837
:102BF00014E03B68DB681A4608217868FEF7AEFAF5
:102C0000F860FB68002B01DAFB6807E03B681B6992
:102C10001A4614217868FEF7A1FA034618461037C1
:102C2000BD4680BD80B582B000AF786039603A683B
:102C300042F218117868FEF791FA034618460837F1
:102C4000BD4680BD80B582B000AF7860012242F2FF
:102C50001C117868FEF782FA034618460837BD460D
:102C600080BD80B586B000AF7860396000237B619D
:102C70007B6901337B6107F10C031A464FF48061D5
:102C80007868FEF790FA38613B69002B01DA3B69FE
:102C900012E0FB6844F24412934209D03B68002BD7
:102CA00004DD7A693B689A4204DCE1E700BFDFE7B4
:102CB00000BF00E000BF7B6918461837BD4680BDE5
:102CC00080B584B000AF78607B685B6800211846EF
:102CD00001F021FE0A2002F041FB7B685B680121C4
:102CE000184601F018FE012002F054FB07F108031A
:102CF0001A464FF480617868FEF755FAF860FB6871
:102D0000002B01DAFB6808E0BB6844F244129342EE
:102D100002D06FF00D0300E0002318461037BD46C7
:102D200080BD00002DE9B043C2B000AFF86007F5E8
:102D30008473A3F58073196007F58473A3F5827318
:102D40001A60002387F807310023C7F800310023F9
:102D5000C7F8FC3007F58473A3F580731B68002B5C
:102D600003D16FF0150300F0A8BC07F58473A3F539
:102D700080731B685B684FF0000118460DF09EFEE3
:102D80000346002B03D06FF0150300F096BC07F547
:102D90008473A3F580731B685B69072B03D96FF0FD
:102DA000150300F08ABC07F58473A3F580731B68D4
:102DB0005B69082B03D16FF0150300F07EBC07F5AB
:102DC0008473A3F582731B68002B03D16FF0150386
:102DD00000F073BC07F58473A3F580731B68DB6890
:102DE000B54918460DF092FE0346002B02D0012390
:102DF00087F8073107F58473A3F580731B685B6957
:102E0000AE4A52F82330C7F8F43007F58473A3F5BF
:102E100080731B685B6818460DF0F4F84FF00002F1
:102E2000A74B0DF047F902460B4614461D46D7F84E
:102E3000F4000DF0C5F802460B46204629460DF079
:102E400063FA02460B46104619460DF045FB034651
:102E5000C7F8F0309B49D7F8F0000DF043FE034669
:102E6000002B1ED00123C7F800310123C7F8FC3026
:102E70009449D7F8F0000DF041FD034692491846F9
:102E80000DF088FC0346194618460DF07BFB0346FF
:102E900018460DF045FE034601335B08C7F8F830CD
:102EA0006BE08A49D7F8F0000DF01CFE0346002BBA
:102EB0001ED00123C7F800310023C7F8FC30834936
:102EC000D7F8F0000DF01AFD03467F4918460DF0C3
:102ED00061FC0346194618460DF054FB034618469C
:102EE0000DF01EFE034601335B08C7F8F83044E0DE
:102EF0007749D7F8F0000DF0F5FD0346002B1ED002
:102F00000023C7F800310123C7F8FC307049D7F817
:102F1000F0000DF0F3FC03466B4918460DF03AFC47
:102F20000346194618460DF02DFB034618460DF0D2
:102F3000F7FD034601335B08C7F8F8301DE00023B6
:102F4000C7F800310023C7F8FC306249D7F8F00019
:102F50000DF0D4FC03465C4918460DF01BFC0346FB
:102F6000194618460DF00EFB034618460DF0D8FD25
:102F7000034601335B08C7F8F830D7F8F830B3F5EB
:102F8000006F03D340F2FF73C7F8F83000225249B4
:102F9000F868FEF7A2F9C7F8EC00D7F8EC30002B80
:102FA00002DAD7F8EC3088E3012387F8CC3001232C
:102FB00087F8CE30012387F8CD30002387F8D8304A
:102FC000002387F8D730002387F8D530002387F80F
:102FD000D630002387F8D030002387F8CF30002385
:102FE00087F8D130002387F8D230002387F8D33018
:102FF00007F1CC031946F868FEF7E9F9C7F8EC00C9
:10300000D7F8EC30002B02DAD7F8EC3055E3D7F8DC
:1030100000317B67D7F8FC30BB670723FB6707F5F8
:103020008473A3F580731B6803F1100107F1640337
:103030005033182218460EF061FD01237B660123F0
:10304000BB664FF40073FB664FF410633B670223CB
:10305000C7F88030002387F88430002387F8853054
:1030600007F58473A3F580731B681A6807F58473EA
:10307000A3F580731B689B6819461046FEF778FC21
:103080000346C7F8A030D7F8F830C7F8A4300023BB
:10309000C7F8A8300023C7F8AC3007F1640319461D
:1030A000F868FEF74AFAC7F8EC00D7F8EC30002BC6
:1030B00014DAD7F8EC3000E30050C34BBCE6010053
:1030C000008096400000204200E0FF44000048439A
:1030D0000000A0430000C844E0FF390014237B62D5
:1030E00024233B620023BB6207F120032433082121
:1030F0001846FDF703FE03237B6397F8073183F03F
:103100000103DBB2BB6307F58473A3F580731B680F
:10311000DB6A3B6307F58473A3F580731B689B6AC6
:10312000FB62012387F83C30002387F83D30012300
:1031300087F84130012387F83F30012387F840307A
:10314000012387F83E30012387F8423007F5847366
:10315000A3F580731B6803F1300107F120032C33C2
:103160000C2218460EF0CAFC07F1200338330C225B
:10317000002118460EF038FD07F120031946F868C3
:10318000FEF715FDC7F8EC00D7F8EC30002B02DA9B
:10319000D7F8EC3091E201227449F868FEF79DF807
:1031A000C7F8EC00D7F8EC30002B02DAD7F8EC3097
:1031B00083E201224FF48141F868FEF78EF8C7F8E8
:1031C000EC00D7F8EC30002B02DAD7F8EC3074E2E0
:1031D00001224FF40141F868FEF77FF8C7F8EC00D0
:1031E000D7F8EC30002B02DAD7F8EC3065E200BFFC
:1031F00002220121F868FFF7ADFC034683F00103CA
:10320000DBB2002BF4D100224CF28011F868FEF7FB
:1032100064F8C7F8EC00D7F8EC30002B02DAD7F8E6
:10322000EC304AE20221F868FFF784FCC7F8EC00B2
:10323000D7F8EC30002B02DAD7F8EC303DE207F19A
:1032400018031A460321F868FEF7EEFCC7F8EC00F5
:10325000D7F8EC30002B02DAD7F8EC302DE207F18A
:10326000180304331A460421F868FEF7DDFCC7F89A
:10327000EC00D7F8EC30002B02DAD7F8EC301CE287
:1032800001220121F868FEF7CDFDC7F8EC00D7F860
:10329000EC30002B02DAD7F8EC300EE201224FF4CA
:1032A0008141F868FEF719F8C7F8EC00D7F8EC3060
:1032B000002B02DAD7F8EC30FFE101224FF4014194
:1032C000F868FEF70AF8C7F8EC00D7F8EC30002BE6
:1032D00002DAD7F8EC30F0E100BF02220121F868F1
:1032E000FFF738FC034683F00103DBB2002BF4D177
:1032F00000224CF28011F868FDF7EFFFC7F8EC00F0
:10330000D7F8EC30002B02DAD7F8EC30D5E1022107
:10331000F868FFF70FFCC7F8EC00D7F8EC30002B8B
:1033200002DAD7F8EC30C8E107F110031A4603219E
:10333000F868FEF779FCC7F8EC00D7F8EC30002B02
:1033400002DAD7F8EC30B8E107F1100304331A467B
:103350000421F868FEF768FCC7F8EC00D7F8EC30F9
:10336000002B05DAD7F8EC30A7E100BF400E1100C2
:10337000BB6903F40033002B05D0BB696FEA8333CC
:103380006FEA9333BB61FB6903F40033002B05D074
:10339000FB696FEA83336FEA9333FB613B6903F4A4
:1033A0000033002B05D03B696FEA83336FEA933318
:1033B0003B617B6903F40033002B05D07B696FEA26
:1033C00083336FEA93337B617B695B427B613B694B
:1033D0005B423B617B695B427B61FB695B42FB61FA
:1033E00007F58473A3F580731B68DB6B002B40F03B
:1033F000A180BB6918460DF079F90446BB691846EF
:103400000DF074F90346194620460DF0C3F9034642
:103410001D46FB6918460DF069F90446FB6918461C
:103420000DF064F90346194620460DF0B3F9034642
:10343000194628460DF0A6F80346C7F8DC303B696C
:1034400018460DF053F90446BB6918460DF04EF9C5
:103450000346194620460DF09DF903461D467B693B
:1034600018460DF043F90446FB6918460DF03EF985
:103470000346194620460DF08DF9034619462846A5
:103480000DF080F80346D7F8DC1018460DF036FA38
:1034900003461A4607F58473A3F580731B685B68BF
:1034A000194610460DF076F903461A4607F584735F
:1034B000A3F582731B681A607B6918460DF016F934
:1034C0000446BB6918460DF011F90346194620461B
:1034D0000DF060F903461D463B6918460DF006F9EC
:1034E0000446FB6918460DF001F9034619462046CB
:1034F0000DF050F90346194628460DF041F80346F1
:10350000D7F8DC1018460DF0F9F903461A4607F50E
:103510008473A3F580731B685B68194610460DF031
:1035200039F903461A4607F58473A3F582731B68BD
:103530005A60C1E0BB6918460DF0D8F80446BB6973
:1035400018460DF0D3F80346194620460DF022F92F
:1035500003461D46FB6918460DF0C8F80446FB6992
:1035600018460DF0C3F80346194620460DF012F92F
:103570000346194628460DF005F8034618460CF098
:1035800041FD02460B461046194619F027FC02463B
:103590000B46104619460CF09FFF0346C7F8E8306B
:1035A0003B6918460DF0A2F804463B6918460DF039
:1035B0009DF80346194620460DF0ECF803461D46DB
:1035C0007B6918460DF092F804467B6918460DF0A9
:1035D0008DF80346194620460DF0DCF803461946DF
:1035E00028460CF0CFFF034618460CF00BFD0246B0
:1035F0000B461046194619F0F1FB02460B461046E1
:1036000019460CF069FF0346C7F8E430D7F8E81014
:10361000D7F8E4000DF072F903461A4607F58473F3
:10362000A3F580731B685B68194610460DF0B2F86D
:103630000346C7F8E4307B6918460CF0D1FC044619
:103640000D463B6918460CF0CBFC02460B46204663
:10365000294619F01FFB04460D46FB6918460CF07D
:10366000BFFC80468946BB6918460CF0B9FC02468F
:103670000B464046494619F00DFB02460B462046D4
:1036800029460CF05FFB02460B46104619460CF02B
:1036900023FF0346C7F8E03007F58473A3F5827370
:1036A0001B68D7F8E4201A6007F58473A3F58273CA
:1036B0001B68D7F8E0205A600023184607F5847786
:1036C000BD46BDE8B08300BF80B483B000AF786072
:1036D0007B68002B04D07B68054A1A60002301E058
:1036E0006FF0150318460C37BD4680BC704700BF0D
:1036F0000000042080B59CB000AFF860B9607A602B
:103700000023FB66BB68042B00F2CD8001A252F8B7
:1037100023F000BF29370000BF370000FB3700004F
:10372000053800002B38000007F11403482200215F
:1037300018460EF059FA0A21F868FFF792FAF8666F
:10374000FB6E002B01DAFB6EB3E0FB6E0A2B02DD91
:103750006FF00403ADE0594B93F8B03383F00103ED
:10376000DBB2002B02D06FF00A03A2E0012387F83E
:10377000583000237B610023BB61504B9B694F4A4B
:10378000526A114618460DF0B9F8034618460DF076
:10379000C7F90346033BBB630123BB6407F1140372
:1037A0001946F868FEF712FEF866FB6E002B01DA88
:1037B000FB6E7EE0414B0022C3F8E02378E00A2153
:1037C000F868FFF74EFAF866FB6E002B01DAFB6E25
:1037D0006FE0FB6E0A2B02DD6FF0040369E000214D
:1037E000F868FEF76BFF0021F868FEF767FFF866E0
:1037F000FB6E002B59DAFB6E5BE0304B012283F845
:10380000DC2355E07B68002B51D02C4B93F86430BF
:10381000002B05D0294BD3F8AC237B681A6046E017
:10382000264BDA6A7B681A6041E000220121F868C1
:10383000FFF760FFF866FB6E002B01DAFB6E38E0E5
:1038400007F15C030D22002118460EF0CDF907F1B7
:103850005C031946F868FDF7BAFDF866FB6E002BAD
:1038600001DAFB6E25E007F114033422002118462B
:103870000EF0BAF907F114031946F868FEF7A9F833
:10388000F866FB6E002B01DAFB6E12E0F868FFF7BA
:10389000D9F9F866FB6E002B01DAFB6E09E00848E7
:1038A0000EF000FA04E000BF02E000BF00E000BF3D
:1038B000FB6E18467037BD4680BD00BF0000042077
:1038C000E0E6010080B5C2B000AF07F58473A3F550
:1038D000827318600023C7F8003107F58473A3F5DD
:1038E000827301211868FCF752FFC7F80001D7F86E
:1038F0000031002B02DAD7F800312AE2012387F8E1
:10390000E830012387F8EA30012387F8E930002303
:1039100087F8F430002387F8F330002387F8F1307C
:10392000002387F8F230002387F8EC30002387F873
:10393000EB30012387F8ED30012387F8EE300023C8
:1039400087F8EF3007F1E80207F58473A3F5827377
:1039500011461868FDF73BFDC7F80001D7F80031A4
:10396000002B02DAD7F80031F3E1C74BDB6BC7F865
:103970009030C54B1B6CC7F89430C34B5B6CC7F8D9
:103980009830002387F8DC300023C7F8D030BE4BD6
:103990005B6DC7F8D8300523C7F8E4300A23C7F8B1
:1039A000E030B94B1B6DC7F8D4300023C7F8803026
:1039B0004FF4C043C7F884304FF44063C7F88830F1
:1039C0004FF48073C7F88C300223C7F89C30002373
:1039D00087F8A030002387F8A130AB4B93F8643010
:1039E000002B16D0A84B9B6EA74AC2F8AC33A64B4F
:1039F0009B6EA54AD36707F58473A3F58273A34A28
:103A0000A3491868FCF7FEFF9F4BDB6FC7F8043132
:103A100008E09D4BDB6AC7F804319B4AD7F80431B4
:103A2000C2F8AC33984B5B691946D7F80401FDF72F
:103A30009FFF0346C7F8BC30934B9B6B95491846D4
:103A40000CF05CFF0346944918460CF0A3FE0346B5
:103A50004FF07C5118460CF095FD034618460DF0CA
:103A60005FF80346C7F8C0300023C7F8C43000230E
:103A7000C7F8C83007F1800207F58473A3F5827395
:103A800011461868FDF759FDC7F80001D7F8003155
:103A9000002B02DAD7F800315BE10023FB641E2320
:103AA000BB6500233B6500237B650023FB6500238A
:103AB00087F86030012387F8613040F28B63A7F804
:103AC00062301F23A7F8643000237B67012387F847
:103AD0007C30012387F87D300223BB660023FB6620
:103AE00000233B6743F2E033BB6707F14C0207F565
:103AF0008473A3F5827311461868FDF76AFFC7F84F
:103B00000001D7F80031002B02DAD7F8003120E1AC
:103B100007F58473A3F5807301225A6007F5847357
:103B2000A3F5807301221A60574B9A6C07F58473D2
:103B3000A3F580739A6007F108032433082200215B
:103B400018460EF051F807F58473A3F5807303222D
:103B50005A6107F58473A3F5807301229A614A4B79
:103B600093F84D301A4607F58473A3F580731A61F4
:103B7000454B93F84C301A4607F58473A3F58073D0
:103B8000DA6007F58473A3F5807300225A7707F58E
:103B90008473A3F5807301221A7707F58473A3F564
:103BA0008073012283F8202007F58473A3F58073C6
:103BB0000122DA7707F58473A3F5807301229A77DF
:103BC00007F58473A3F58073012283F8222007F59B
:103BD0008473A3F58073012283F821202A4B9A6D08
:103BE00007F58473A3F58073DA62274BDA6D07F566
:103BF0008473A3F580731A63234B93F8602007F551
:103C00008473A3F5807383F8342007F108033833F5
:103C10000C22002118460DF0E7FF07F1080207F516
:103C20008473A3F5827311461868FDF7C0FFC7F8C7
:103C30000001D7F80031002B02DAD7F8003188E014
:103C400007F58473A3F58273012214491868FDF700
:103C500044FBC7F80001D7F80031002B02DAD7F88F
:103C6000003176E007F58473A3F5827300211868AC
:103C7000FEF79CFBC7F80001D7F80031002B0FDAE4
:103C8000D7F8003165E000BF000004208000042068
:103C9000640004200000484400E0FF44604E11002E
:103CA00007F58473A3F582734FF001411868FCF7A0
:103CB000EFFBC7F80001D7F80031002B02DAD7F884
:103CC000003146E007F1F80207F1FC0107F58473C3
:103CD000A3F582731868FCF73DFDC7F80001D7F81B
:103CE0000031002B02DAD7F8003132E007F5847397
:103CF000A3F5827300211868FCF749FDC7F800019D
:103D0000D7F80031002B02DAD7F8003121E0134B4D
:103D10000122C3F8B423114B1B68104AC2F8B83310
:103D2000D7F8FC300D4AC2F8C433D7F8F8300B4A44
:103D3000C2F8BC33094BD3F8B813D7F8FC20D7F836
:103D4000F83007F58470A0F582700068FEF78FFAEE
:103D50000346184607F58477BD4680BD0000042061
:103D600080B592B000AF78600B46FB700323FB6117
:103D7000944BDB6DBB61934B9B6D0233012202FAC6
:103D800003F33B628F4B93F84D303B618D4B93F8BF
:103D90004C30FB6000237B618A4B5B69894AD269A6
:103DA000114618460CF0AAFD03467B6207F1380263
:103DB00007F10C0319467868FCF702FD78647B6C08
:103DC000002B01DA7B6C1EE101217868FCF7DFFC37
:103DD00078647B6C002B01DA7B6C14E11023BB62EE
:103DE0004FF48063FB6202233B6340F201137B6369
:103DF00007F1280319467868FDF7D2FB78647B6CDD
:103E0000002B01DA7B6CFEE040217868FEF7CEFAE9
:103E100078647B6C002B01DA7B6CF4E007220621CE
:103E20007868FDF7FFFF78647B6C002B01DA7B6C10
:103E3000E9E001224FF481417868FDF74EFA786499
:103E40007B6C002B01DA7B6CDDE04FF44871786805
:103E5000FCF71EFB78647B6C002B01DA7B6CD2E0F4
:103E600001224FF401417868FDF737FA78647B6CE2
:103E7000002B01DA7B6CC6E0BB6B23F04043194694
:103E80007868FCF705FB78647B6C002B01DA7B6CAF
:103E9000B9E000224CF280117868FDF71EFA7864D0
:103EA0007B6C002B01DA7B6CADE0FB78002B46D0FD
:103EB000012201217868FDF7B5FF78647B6C002B47
:103EC00001DA7B6C9FE001224FF481417868FDF7B5
:103ED00004FA78647B6C002B01DA7B6C93E04FF47E
:103EE00048717868FCF7D4FA78647B6C002B01DAAF
:103EF0007B6C88E001224FF401417868FDF7EDF911
:103F000078647B6C002B01DA7B6C7CE0BB6B23F06C
:103F1000404319467868FCF7BBFA78647B6C002B49
:103F200001DA7B6C6FE000224CF280117868FDF7BB
:103F3000D4F978647B6C002B01DA7B6C63E000239E
:103F4000BB624FF4C043FB624FF440633B634FF4EA
:103F500080737B6307F1280319467868FDF720FB1F
:103F600078647B6C002B01DA7B6C4CE00021786874
:103F7000FEF71CFA78647B6C002B01DA7B6C42E064
:103F80007868FEF75FFE78647B6C002B01DA7B6C4F
:103F900039E007F13C0207F1400319467868FCF765
:103FA000D9FB78647B6C002B01DA7B6C2BE0002161
:103FB0007868FCF7ECFB78647B6C002B04DA7B6C94
:103FC00021E000BF00000420114B0022C3F8C823E9
:103FD0000F4BD3F8B8230E4BD3F8BC3313440C4A21
:103FE000C2F8CC333B6C0A4AC2F8D833FB6B084AA0
:103FF000C2F8D033064BD3F8CC133A6CFB6B78681D
:10400000FEF735F9034618464837BD4680BD00BF68
:10401000000004202DE9B04398B004AF78606A4BEB
:10402000DB697B61684B93F84D307B63664B93F89B
:104030004C303B6300237B64634B9B6DBB63624BE3
:10404000DB6DFB63604B93F8603087F840305E4B6C
:104050001B6BFB60002387F824300023BB615A4BA5
:104060005B6D3B620523FB620A23BB620323FB619A
:10407000554B5B693B61544B93F86430002B75D012
:10408000514B00229A670023FB644AE007F10803C2
:104090001A464E497868FCF7B5FCFB6C1133DB001F
:1040A000494A13441A1D07F1080319467868FEF7B8
:1040B00039FEB864BB6C002B01DABB6C7EE0BB68D8
:1040C00018460BF09FFF804689463F4AFB6C113330
:1040D000DB0013445B6818460BF094FF04460D4662
:1040E000394AFB6CDB001344D3F89030384918464A
:1040F0000CF050FB0346374918460CF0FFFB034613
:1041000018460BF07FFF02460B46CDE90223CDE9AE
:10411000004542464B4630480DF0C4FDFB6C013370
:10412000FB64294B1B6FFA6C9A42AFD3264B996FF5
:10413000254AFB6C1133DB0013445A68224801F115
:1041400020039B0003445A601F4B996F1E4AFB6C6F
:104150001133DB0013445A681B4801F120039B0014
:1041600003445A60184B00229A6726E0164BDB6A1C
:10417000BB6007F10803194A19467868FEF7D2FDBB
:10418000B864BB6C002B01DABB6C17E00E4BD3F8A4
:10419000843018460BF036FF04460D460A4BD3F820
:1041A000883018460BF02EFF02460B46CDE900235F
:1041B00022462B460A480DF075FD0023184650375D
:1041C000BD46BDE8B08300BF0000042064000420A9
:1041D00000003443DA0F4940F4E601008400042073
:1041E00018E7010080B58EB000AFF860B9607A6062
:1041F0000A21F868FEF735FD78637B6B002B01DA46
:104200007B6B23E17B6B0A2B02DD6FF004031DE166
:104210000123BB62002387F82D30002387F82E305E
:10422000012387F82F30002387F82C3000233B63CD
:1042300007F128031946F868FDF77DFF78637B6B6B
:10424000002B01DA7B6B01E1824B1B7C002B0BD135
:10425000804B9B7C002B07D17E4B93F8B03383F0CF
:104260000103DBB2002B15D00221F868FEF762FCD7
:1042700078637B6B002B01DA7B6BE7E0F868FFF774
:10428000C9FE78637B6B002B01DA7B6BDEE0714B40
:1042900000229A7400220221F868FDF710FF78636B
:1042A0007B6B002B01DA7B6BD0E001233B75002395
:1042B000BB610223FB6102233B62664B1B6A7B628C
:1042C00007F114031946F868FDF792FE78637B6BDB
:1042D000002B01DA7B6BB9E04FF0FF31F868FEF795
:1042E00029FC78637B6B002B01DA7B6BAEE0594BCA
:1042F00093F8B03383F00103DBB2002B03D1554BAD
:104300001B7C002B2BD0BB68002B02D16FF0150358
:104310009CE07B68002B02D16FF0150396E07A6871
:10432000B968F868FCF7E9F978637B6B002B01DA70
:104330007B6B8BE0F868FFF7C5FA78637B6B002B2B
:1043400001DA7B6B82E0434B5B7C1946F868FFF730
:1043500007FD78637B6B002B01DA7B6B76E03D4BCE
:10436000002283F8C0233C49F868FDF7B1FF786369
:104370007B6B002B01DA7B6B68E0012387F82C3024
:1043800007F128031946F868FDF7D5FE78637B6BC3
:10439000002B01DA7B6B59E02E4BD3F8B43319466E
:1043A000F868FDF74AFF78637B6B002B01DA7B6BC3
:1043B0004CE000BF4FF400420121F868FEF7CAFB51
:1043C000034683F00103DBB2002BF3D1214B002223
:1043D00083F8D4232149F868FDF77AFF012387F891
:1043E0002C3007F128031946F868FDF7A4FE78631E
:1043F0007B6B002B01DA7B6B28E004F051F87863CB
:104400007B6B002B01DA7B6B20E0124B5B6B032292
:104410001946F868FCF7C3FF78637B6B002B01DA61
:104420007B6B13E0082242F25C31F868FCF796FEE1
:1044300078637B6B002B01DA7B6B07E0054B012275
:1044400083F8B023034B00221A7400231846383730
:10445000BD4680BD00000420B4030420C80304202E
:1044600080B584B000AFF860B9607A601D4B9B6A7C
:10447000002B17DD1B4BD3F8E0237B681B689B08E0
:104480001344184AC2F8E033164BD3F8E0331A4607
:10449000144B9B6A9A4205DB0021F868FEF70EF97F
:1044A00003461BE00F4B93F8DC33002B05D00021B3
:1044B000F868FEF703F9034610E00A4B93F86430FE
:1044C000002B0AD0074BD3F88030064A52691946B0
:1044D000F868FDF737FA034600E000231846103766
:1044E000BD4680BD0000042080B485B000AF786078
:1044F0000B467B800023FB6025E0FB689B007A680D
:1045000013441A68FB689B0079680B44C2F31102DC
:104510001A60FB689B007A6813441B6803F400333D
:10452000002B0DD0FB689B007A6813441B68FA6867
:10453000920079680A446FEA83336FEA9333136019
:10454000FB680133FB607B88FA689A42D5D300BFD1
:1045500000BF1437BD4680BC7047000090B58DB0D9
:1045600000AF786039603B68FB624FF07E53BB62FE
:10457000FB6A03F10802FA627B62FB6A3B627B6AB8
:104580001B6818460CF0B2F80346FB617B6A5B6857
:1045900018460CF0ABF8034683F00043BB613B6A5E
:1045A0001B6818460CF0A2F8034683F000437B61B9
:1045B0003B6A5B6818460CF099F803463B617969E1
:1045C00078690CF0E7F803461C46396938690CF045
:1045D000E1F80346194620460BF0D4FF0346BB62C0
:1045E0007969F8690CF0D6F803461C463969B86950
:1045F0000CF0D0F80346194620460BF0C3FF0346E3
:10460000B96A18460CF07AF90346BB60FB6983F07F
:104610000043396918460CF0BDF803461C46796919
:10462000B8690CF0B7F80346194620460BF0AAFF0C
:104630000346B96A18460CF061F90346FB60BB6893
:10464000204AD2F88420114618460CF0A3F80346FD
:104650001C46FB681B4AD2F88820114618460CF00D
:1046600099F80346194620460BF08AFF0346FB6182
:10467000FB68144AD2F88420114618460CF08AF8D8
:1046800003461C46BB680F4AD2F8882011461846DC
:104690000CF080F80346194620460BF073FF0346E2
:1046A000BB61FB69BB60BB69FB607B681A4607F1B5
:1046B000080393E8030082E8030078683437BD46B6
:1046C00090BD00BF0000042080B588B000AFF86046
:1046D000B9607A60BB68002B02D07B68002B02D1E6
:1046E0006FF0150378E07B681B68FB613C4B93F827
:1046F000B03383F00103DBB2002B02D06FF00A036A
:104700006AE00A21F868FEF7ACFAB861BB69002BD1
:1047100001DABB6960E0BB690A2B02DD6FF00403BC
:104720005AE00021F868FEF77DFAB861BB69002BFA
:1047300001DABB6950E07B6800221A604FF000721A
:104740000021F868FEF706FA0346002B43D007F174
:1047500014031946F868FDF7D2FCB861BB69002B59
:1047600001DABB6938E07B69FA699A4202D21C4BD4
:104770001B6A7B617B691A46B968F868FCF79AFC8A
:10478000B861BB69002B01DABB6925E04FF000710D
:10479000F868FEF7CFF9B861BB69002B01DABB6995
:1047A0001AE007F114031A46B968F868FFF758FED3
:1047B000B861BB69002B01DABB690DE00949F868F3
:1047C000FEF730FAB861BB69002B01DABB6903E080
:1047D0007A697B681A60002318462037BD4680BD81
:1047E00000000420E5470A0080B584B000AF78607F
:1047F00039603B68002B03D03B68DB68002B02D19B
:104800006FF0150319E03B68DB681B68002B02D1D1
:104810006FF0570311E03B68DB681B683968786804
:104820009847F860FB68002B01D0FB6805E07B68C7
:104830001B683A68D268DA60002318461037BD4614
:1048400080BD80B582B000AF78607B68002B15D04A
:104850007B68DB68002B02D16FF015030FE07B68EB
:10486000DB689B68002B02D16FF0570307E07B6881
:10487000DB689B6878689847034600E00023184689
:104880000837BD4680BD80B582B000AF78607B68D8
:10489000002B15D07B68DB68002B02D16FF015036D
:1048A0000FE07B68DB68DB68002B02D16FF05703F9
:1048B00007E07B68DB68DB6878689847034600E0C0
:1048C000002318460837BD4680BD80B582B000AFD2
:1048D00078600B46FB707B68002B17D07B68DB6829
:1048E000002B02D16FF0150311E07B68DB681B69B8
:1048F000002B02D16FF0570309E07B68DB681B696E
:10490000FA78114678689847034600E00023184675
:104910000837BD4680BD80B582B000AF78600B46D9
:10492000FB707B68002B17D07B68DB68002B02D103
:104930006FF0150311E07B68DB689B69002B02D1E7
:104940006FF0570309E07B68DB689B69FA781146D2
:1049500078689847034600E0002318460837BD46AC
:1049600080BD000080B584B000AF786039603B68DE
:10497000002B03D03B68DB68002B02D16FF01503DE
:104980003FE03B68DB681B68002B02D16FF05703E8
:1049900037E03B681B68042B02D96FF0150330E049
:1049A0003B681B68194A52F82330002B08D138683D
:1049B00000F02EF8F860FB68002B01D0FB6820E0C7
:1049C0003B68DB681B68396878689847F860FB6863
:1049D000002B01D0FB6814E03B681A687B681B68F9
:1049E0000A4951F822201A607B681B681B681A79F3
:1049F0000132D2B21A717B681B683A68D2681A61B8
:104A0000002318461037BD4680BD00BF2410042087
:104A100080B584B000AF78601821012004F078FDE3
:104A2000F860FB68002B02D16FF00B031DE0FB6800
:104A3000184605F0A2FAFB6800221A717B681A6812
:104A4000FB689A607B685A68FB68DA607B68DA68A2
:104A5000FB681A617B681A69FB685A617B681B688E
:104A60000449FA6841F82320002318461037BD4650
:104A700080BD00BF2410042090B587B000AFF8605F
:104A8000B96011461A460B46FB711346BB71FB68B1
:104A9000002B03D0FB681B69002B02D16FF01503BC
:104AA0001DE0FB681B695B68002B02D16FF05703A8
:104AB00015E0FB681B681B68184605F067FAFB6881
:104AC0001B695C68BB79FA79B968F868A0477861B6
:104AD000FB681B681B68184605F061FA7B6918467D
:104AE0001C37BD4690BD80B584B000AF786039609A
:104AF0003B68002B03D03B685B68002B02D16FF052
:104B000015031EE03B685B681B68002B02D16FF049
:104B1000570316E03B685B681B68396878689847FC
:104B2000F860FB68002B01D0FB680AE07B681B681B
:104B30009A6801329A607B681B683A6852685A60CA
:104B4000002318461037BD4680BD80B582B000AF47
:104B500078607B68002B03D07B685B68002B02D1F8
:104B60006FF0150318E07B685B689B6A002B02D12D
:104B70006FF0570310E07B689B685A1E7B689A6051
:104B80007B689B68002B01D0002305E07B685B6895
:104B90009B6A78689847034618460837BD4680BD2B
:104BA00080B584B000AFF860B9607A60FB68002B14
:104BB00003D0FB685B68002B02D16FF015030FE098
:104BC000FB685B685B68002B02D16FF0570307E05E
:104BD000FB685B685B687A68B968F8689847034661
:104BE00018461037BD4680BD80B584B000AFF86070
:104BF000B9607A60FB68002B03D0FB685B68002B10
:104C000002D16FF015030FE0FB685B689B68002B17
:104C100002D16FF0570307E0FB685B689B687A6816
:104C2000B968F8689847034618461037BD4680BDF6
:104C300080B584B000AFF860B9601346FB71FB68C3
:104C4000002B03D0FB685B68002B02D16FF01503CB
:104C50000FE0FB685B685B69002B02D16FF05703C4
:104C600007E0FB685B685B69FA79B968F8689847A0
:104C7000034618461037BD4680BD80B582B000AFF0
:104C8000786039607B68002B03D07B685B68002B01
:104C900002D16FF015030EE07B685B689B69002B07
:104CA00002D16FF0570306E07B685B689B69396847
:104CB00078689847034618460837BD4680BD80B5DA
:104CC00082B000AF786039607B68002B03D07B68CE
:104CD0005B68002B02D16FF015030EE07B685B6808
:104CE000DB69002B02D16FF0570306E07B685B683D
:104CF000DB69396878689847034618460837BD4627
:104D000080BD000080B584B000AF786039603B683A
:104D1000002B03D03B68DB68002B02D16FF015033A
:104D20004DE03B68DB681B68002B02D16FF0570336
:104D300045E03B681B68082B02D96FF015033EE085
:104D40003B681B68204A52F82330002B08D1386892
:104D500000F03CF8F860FB68002B01D0FB682EE007
:104D60003B68DB681B68396878689847F860FB68BF
:104D7000002B01D0FB6822E03B681A687B681B6847
:104D8000114951F822201A607B681B681B681A7948
:104D90000132D2B21A717B681B683A68D2681A6114
:104DA0007B681B683A68D2691A627B681B683A683C
:104DB0001433103292E8030083E8030000231846FE
:104DC0001037BD4680BD00BF3810042080B584B0C8
:104DD00000AF78601C21012004F09AFBF860FB68AA
:104DE000002B02D16FF00B0325E0FB68184605F09D
:104DF000C4F8FB6800221A717B681A68FB689A6025
:104E00007B685A68FB68DA607B685A7AFB681A74B8
:104E10007B689A7AFB685A747B68DA68FB685A6127
:104E20007B689A69FB689A617B681B680449FA6829
:104E300041F82320002318461037BD4680BD00BF2F
:104E40003810042080B582B000AF78607B68002BFA
:104E500003D07B681B69002B02D16FF0150317E0AC
:104E60007B681B68002B05D07B681B689B68184615
:104E700000F012F87B681B695B69002B02D16FF0B0
:104E8000570305E07B681B695B69786898470346B0
:104E900018460837BD4680BD80B584B000AF786045
:104EA000144A7B6852F82330FB60FB681B79002BA7
:104EB00005D0FB681B79013BDAB2FB681A71FB680D
:104EC0001B79002B11D1FB681B68184605F070F8A0
:104ED000FB68002B09D0F86804F028FB0023FB6076
:104EE000044A7B68002142F8231000BF1037BD46FA
:104EF00080BD00BF3810042080B586B000AFF860D8
:104F0000B9601346FB80FB68002B03D0FB681B696C
:104F1000002B02D16FF015031CE0FB681B695B6876
:104F2000002B02D16FF0570314E0FB681B681B686D
:104F3000184605F02BF8FB681B695B68FA88B968AE
:104F4000F86898477861FB681B681B68184605F08D
:104F500026F87B6918461837BD4680BD80B584B0F9
:104F600000AF786039603B68002B03D03B68DB689A
:104F7000002B02D16FF015032AE03B68DB681B6849
:104F8000002B02D16FF0570322E03B68DB681B68FF
:104F9000396878689847F860FB68002B01D0FB6897
:104FA00016E07B681B683A68D2681A613B681B8808
:104FB0009B00094A1344184604F0DFFF3B681B8836
:104FC00019467B681B68044A52F821201A600023A6
:104FD00018461037BD4680BD5C10042080B582B0F5
:104FE00000AF78607B68002B03D07B681B69002BC7
:104FF00002D16FF015030DE07B681B695B68002B25
:1050000002D16FF0570305E07B681B695B68786825
:105010009847034618460837BD4680BD80B582B024
:1050200000AF78607B68002B03D07B681B69002B86
:1050300002D16FF0150312E07B681B699B68002B9F
:1050400002D16FF057030AE07B681B68184604F032
:10505000A6FF7B681B699B687868984703461846DB
:105060000837BD4680BD80B582B000AF786039603A
:105070007B68002B06D07B681B69002B02D03B6845
:10508000002B02D16FF015030EE07B681B69DB6813
:10509000002B02D16FF0570306E07B681B69DB68C9
:1050A000396878689847034618460837BD4680BD7A
:1050B00080B582B000AF786039607B68002B03D088
:1050C0007B681B69002B02D16FF015030EE07B6833
:1050D0001B691B69002B02D16FF0570306E07B6848
:1050E0001B691B6939687868984703461846083772
:1050F000BD4680BD80B584B000AF786039603B6844
:10510000002B07D03B685B69002B03D03B681B7802
:105110000A2B02D96FF015032AE03B685B691B6814
:10512000002B02D16FF0570322E03B685B691B68DC
:10513000396878689847F860FB68002B01D0FB68F5
:1051400016E07B681B683A6852695A613B681B78B5
:105150009B00094A1344184604F00FFF3B681B7874
:1051600019467B681B68044A52F821201A60002304
:1051700018461037BD4680BD7010042080B586B03B
:1051800000AFF860B9607A60FB68002B06D0FB685E
:105190005B69002B02D0BB68002B02D16FF01503B6
:1051A0001AE0FB685B695B68002B02D16FF0570364
:1051B00012E0FB681B68184604F0E8FEFB685B69B8
:1051C0005B687A68B968F86898477861FB681B681B
:1051D000184604F0E4FE7B6918461837BD4680BDCA
:1051E00080B586B000AFF860B9607A60FB68002BCC
:1051F00006D0FB685B69002B02D0BB68002B02D194
:105200006FF015031AE0FB685B699B68002B02D105
:105210006FF0570312E0FB681B68184604F0B6FEF7
:10522000FB685B699B687A68B968F8689847786139
:10523000FB681B68184604F0B2FE7B6918461837F5
:10524000BD4680BD80B586B000AFF860B9607A60B9
:10525000FB68002B06D0FB685B69002B02D0BB68A3
:10526000002B02D16FF015031AE0FB685B69DB6865
:10527000002B02D16FF0570312E0FB681B68184641
:1052800004F084FEFB685B69DB687A68B968F868DB
:1052900098477861FB681B68184604F080FE7B69BC
:1052A00018461837BD4680BD80B588B000AF78601D
:1052B00039600023BB813B68002B01D0154B01E016
:1052C0004FF47A733B6100237B61134BBB613B68F6
:1052D000002B0FD007F10C0319461048FFF73EFED4
:1052E0000346002B01D0002310E00C4B1B6818462E
:1052F000FFF774FE07F10C0319467868FFF72EFEDE
:105300000346002B01D0002300E00123184620377C
:10531000BD4680BD40420F00E4E70100A01004201C
:1053200080B584B000AF7860396000217868FFF7FD
:10533000BFFE7868FFF752FE07F10C031946786844
:10534000FFF791FEFB683A689A42F5D87868FFF754
:1053500065FE00BF1037BD4680BD000080B582B03D
:1053600000AF78600A4B1B68002B06D1012108486A
:10537000FFF79AFF0346002B06D0054B1B687968A0
:105380001846FFF7CDFF00E000BF0837BD4680BDDF
:105390009C10042080B582B000AF78600A4B1B6877
:1053A000002B06D100210848FFF77EFF0346002BA3
:1053B00006D0054B1B6879681846FFF7B1FF00E07F
:1053C00000BF0837BD4680BDA410042080B483B060
:1053D00000AF0346FB7197F90730002B12DBFB7916
:1053E00003F01F020A4997F907305B09012000FA10
:1053F00002F2203341F82320BFF34F8F00BFBFF3E9
:105400006F8F00BF00BF0C37BD4680BC704700BF28
:1054100000E100E080B582B000AF786039607B6861
:10542000002B02D03B68002B02D14FF0FF3337E056
:105430001421012004F06CF802467B681A607B6836
:105440001B68002B02D14FF0FF3329E07B681B68FB
:105450003A6852685A60144B1B78002B19D105F03A
:1054600039FE1021114805F005FE0346002B0AD035
:105470007B681B68184604F059F87B6800221A60A4
:105480004FF0FF330CE00920FFF7A0FF0A20FFF7E1
:105490009DFF054B1B780133DAB2034B1A700023D2
:1054A00018460837BD4680BDB8100420A810042057
:1054B00080B582B000AF786039603B68002B04D1C2
:1054C0007B6800221A60002304E039687868FFF7DF
:1054D0008BF9034618460837BD4680BD80B582B0BB
:1054E00000AF78607B68002B03D00E4B1B78002B3D
:1054F00002D14FF0FF3311E0786804F017F8094B40
:105500001B78013BDAB2074B1A70064B1B78002B55
:1055100003D105F0DFFD034600E0002318460837FD
:10552000BD4680BDB810042080B582B000AF786061
:105530007B68002B03D0124B1B78002B02D14FF05D
:10554000FF3319E07B685B681B11DBB203F00F03CC
:10555000D8B27B685B6803F00F03012202FA03F301
:105560009BB20122194605F08DFE0346002B02D0A6
:105570004FF0FF3300E0002318460837BD4680BDDA
:10558000B810042080B584B000AF78600B46FB7083
:105590007B68002B03D02D4B1B78002B02D14FF0E2
:1055A000FF334FE07B685B681B11DBB203F00F0336
:1055B000D8B27B685B6803F00F03012202FA03F3A1
:1055C0009BB20122194605F021FE0346FB73FB7BCB
:1055D000002B02D04FF0FF3334E0FB78012B15D1C4
:1055E0007B685B681B11DBB203F00F03DAB27B68E8
:1055F0005B6803F00F03012101FA03F39BB2194624
:10560000104605F0CFFE0346FB7314E07B685B6831
:105610001B11DBB203F00F03DAB27B685B6803F0A7
:105620000F03012101FA03F39BB21946104605F05E
:10563000D1FE0346FB73FB7B002B02D04FF0FF3300
:1056400000E0002318461037BD4680BDB810042086
:1056500080B584B000AF786039607B68002B03D0E0
:10566000184B1B78002B02D14FF0FF3326E07B68EC
:105670005B681B11DBB203F00F03DBB207F10E0214
:105680001146184605F03AFE0346002B02D04FF0B3
:10569000FF3313E0FB891A467B685B6803F00F0356
:1056A00022FA03F303F00103002B03D03B6801222D
:1056B0001A7002E03B6800221A7000231846103767
:1056C000BD4680BDB810042080B584B000AF7860BE
:1056D0000B46FB707B68002B03D0474B1B78002BDD
:1056E00002D14FF0FF3383E0FB78022B32D0022B44
:1056F00061DC002B02D0012B16D05CE07B685B687C
:105700001B11DBB203F00F03DAB27B685B6803F0B6
:105710000F03012101FA03F39BB21946104605F06D
:1057200059FE0346FB735CE07B685B681B11DBB2D0
:1057300003F00F03DAB27B685B6803F00F0301210B
:1057400001FA03F39BB21946104605F02BFE0346FF
:10575000FB7346E07B685B681B11DBB203F00F0351
:10576000D8B27B685B6803F00F03012202FA03F3EF
:105770009BB20022194605F049FD0346FB73FB7BF3
:10578000002B02D04FF0FF3332E07B685B681B11C7
:10579000DBB203F00F03D8B27B685B6803F00F0342
:1057A000012202FA03F39BB20022194605F06AFDBA
:1057B0000346FB7315E07B685B681B11DBB203F0EB
:1057C0000F03DAB27B685B6803F00F03012101FA73
:1057D00003F39BB21946104605F0E4FD0346FB7344
:1057E00000BFFB7B002B02D04FF0FF3300E0002313
:1057F00018461037BD4680BDB810042080B584B06F
:1058000000AF786039607B68002B03D0394B1B7880
:10581000002B02D14FF0FF3368E07B685B681B11FF
:10582000DBB203F00F03DBB207F10C02114618469E
:1058300005F064FD0346002B02D04FF0FF3355E026
:10584000BB891A467B685B6803F00F0322FA03F3F7
:1058500003F00103002B25D07B685B681B11DBB2D2
:1058600003F00F03DBB207F10C021146184605F0F6
:10587000E7FD0346002B02D04FF0FF3336E0BB8933
:105880001A467B685B6803F00F0322FA03F303F008
:105890000103002B14BF01230023DBB21A463B682F
:1058A0001A7022E07B685B681B11DBB203F00F0308
:1058B000D8B27B685B6803F00F03012202FA03F39E
:1058C0009BB207F10E02194605F09CFD0346002B22
:1058D00002D04FF0FF3309E0FB89002B14BF0123F6
:1058E0000023DBB21A463B681A70002318461037B3
:1058F000BD4680BDB810042080B483B000AF03461D
:10590000FB7197F90730002B0BDBFB7903F01F02CB
:10591000064997F907305B09012000FA02F241F8C5
:10592000232000BF0C37BD4680BC704700E100E07B
:1059300080B483B000AF0346FB7197F90730002BAA
:1059400012DBFB7903F01F020A4997F907305B0964
:10595000012000FA02F2203341F82320BFF34F8FD9
:1059600000BFBFF36F8F00BF00BF0C37BD4680BCC8
:10597000704700BF00E100E080B483B000AF034691
:105980003960FB7197F90730002B0ADB3B68DAB20C
:105990000C4997F907305201D2B20B4483F8002327
:1059A0000AE03B68DAB20849FB7903F00F03043BD5
:1059B0005201D2B20B441A7600BF0C37BD4680BCF0
:1059C000704700BF00E100E000ED00E080B58EB060
:1059D00000AFF860B9607A60FB687B637B683B630B
:1059E0002FE03B6B1B88184604F0EBFA03467B6103
:1059F0007B69202B2AD03B6B1B881AB27B69012163
:105A000001FA03F31BB2DB431BB213401BB29AB281
:105A10003B6B1A807B6B1B6B07F1140207F12801AB
:105A2000184604F09FF8F862FB6A002B00D008E0EB
:105A3000BB6A002B05D0BB6A9B68BA6AD268104665
:105A400098473B6B1B88002BCBD100E000BF00BF09
:105A50003837BD4680BD80B58CB000AFF860B96006
:105A60007A60FB68FB62BB683B61FB6A1B6B07F1FA
:105A7000100207F12401184604F074F8B862BB6AFA
:105A8000002B09D17B6A002B07D07B6A9B687A6A5E
:105A9000D2681046984700E000BF3037BD4680BD51
:105AA00080B586B000AF786039603B68002B02D1CA
:105AB0006FF0150372E01021012003F029FD386119
:105AC0003B69002B02D16FF00B0367E0342101200A
:105AD00003F01EFDF860FB68002B5AD03B681A6883
:105AE0003B691A603B69FA68DA60FB6830332D4A1B
:105AF0000321184603F09EFE78617B69002B41D19B
:105B00003B691B68022B30D0022B3DD8002B02D002
:105B1000012B22D038E0FB683021184609F0DCFE6A
